{
	"data": {
		"bytecode": {
			"linkReferences": {},
			"object": "60806040523480156200001157600080fd5b50600160405180604001604052806040518060400160405280600a81526020017f63616e64696461746531000000000000000000000000000000000000000000008152508152602001600081525090806001815401808255809150506001900390600052602060002090600202016000909190919091506000820151816000019080519060200190620000a6929190620001fb565b50602082015181600101555050600160405180604001604052806040518060400160405280600a81526020017f63616e6469646174653200000000000000000000000000000000000000000000815250815260200160008152509080600181540180825580915050600190039060005260206000209060020201600090919091909150600082015181600001908051906020019062000147929190620001fb565b50602082015181600101555050600160405180604001604052806040518060400160405280600a81526020017f63616e64696461746533000000000000000000000000000000000000000000008152508152602001600081525090806001815401808255809150506001900390600052602060002090600202016000909190919091506000820151816000019080519060200190620001e8929190620001fb565b5060208201518160010155505062000310565b8280546200020990620002ab565b90600052602060002090601f0160209004810192826200022d576000855562000279565b82601f106200024857805160ff191683800117855562000279565b8280016001018555821562000279579182015b82811115620002785782518255916020019190600101906200025b565b5b5090506200028891906200028c565b5090565b5b80821115620002a75760008160009055506001016200028d565b5090565b60006002820490506001821680620002c457607f821691505b60208210811415620002db57620002da620002e1565b5b50919050565b7f4e487b7100000000000000000000000000000000000000000000000000000000600052602260045260246000fd5b6110e780620003206000396000f3fe608060405234801561001057600080fd5b50600436106100885760003560e01c806350d853151161005b57806350d85315146101145780638e7ea5b214610132578063a3ec138d14610150578063ecb617d91461018157610088565b8063039b925a1461008d57806306a49fce146100a95780633477ee2e146100c75780633eb76b9c146100f8575b600080fd5b6100a760048036038101906100a2919061099c565b61019f565b005b6100b16101b9565b6040516100be9190610c10565b60405180910390f35b6100e160048036038101906100dc91906109e5565b6102b4565b6040516100ef929190610c7d565b60405180910390f35b610112600480360381019061010d91906109e5565b610370565b005b61011c6104ec565b6040516101299190610c5b565b60405180910390f35b61013a61057e565b6040516101479190610c5b565b60405180910390f35b61016a6004803603810190610165919061096f565b6106b8565b604051610178929190610c32565b60405180910390f35b6101896106f6565b6040516101969190610ced565b60405180910390f35b80600090805190602001906101b5929190610832565b5050565b60606001805480602002602001604051908101604052809291908181526020016000905b828210156102ab578382906000526020600020906002020160405180604001604052908160008201805461021090610ea4565b80601f016020809104026020016040519081016040528092919081815260200182805461023c90610ea4565b80156102895780601f1061025e57610100808354040283529160200191610289565b820191906000526020600020905b81548152906001019060200180831161026c57829003601f168201915b50505050508152602001600182015481525050815260200190600101906101dd565b50505050905090565b600181815481106102c457600080fd5b90600052602060002090600202016000915090508060000180546102e790610ea4565b80601f016020809104026020016040519081016040528092919081815260200182805461031390610ea4565b80156103605780601f1061033557610100808354040283529160200191610360565b820191906000526020600020905b81548152906001019060200180831161034357829003601f168201915b5050505050908060010154905082565b6000600260003373ffffffffffffffffffffffffffffffffffffffff1673ffffffffffffffffffffffffffffffffffffffff16815260200190815260200160002090508060000160009054906101000a900460ff16610404576040517f08c379a00000000000000000000000000000000000000000000000000000000081526004016103fb90610cad565b60405180910390fd5b8060000160019054906101000a900460ff1615610456576040517f08c379a000000000000000000000000000000000000000000000000000000000815260040161044d90610ccd565b60405180910390fd5b60018160000160016101000a81548160ff021916908315150217905550600180838154811061048857610487610fae565b5b906000526020600020906002020160010160008282546104a89190610dc4565b925050819055507fa36cc2bebb74db33e9f88110a07ef56e1b31b24b4c4f51b54b1664266e29f45b33836040516104e0929190610be7565b60405180910390a15050565b6060600080546104fb90610ea4565b80601f016020809104026020016040519081016040528092919081815260200182805461052790610ea4565b80156105745780601f1061054957610100808354040283529160200191610574565b820191906000526020600020905b81548152906001019060200180831161055757829003601f168201915b5050505050905090565b606060008080600090505b6001805490508110156106025782600182815481106105ab576105aa610fae565b5b90600052602060002090600202016001015411156105ef57600181815481106105d7576105d6610fae565b5b90600052602060002090600202016001015492508091505b80806105fa90610f07565b915050610589565b506001818154811061061757610616610fae565b5b9060005260206000209060020201600001805461063390610ea4565b80601f016020809104026020016040519081016040528092919081815260200182805461065f90610ea4565b80156106ac5780601f10610681576101008083540402835291602001916106ac565b820191906000526020600020905b81548152906001019060200180831161068f57829003601f168201915b50505050509250505090565b60026020528060005260406000206000915090508060000160009054906101000a900460ff16908060000160019054906101000a900460ff16905082565b6000600260003373ffffffffffffffffffffffffffffffffffffffff1673ffffffffffffffffffffffffffffffffffffffff16815260200190815260200160002060000160009054906101000a900460ff1615610756576000905061082f565b604051806040016040528060011515815260200160001515815250600260003373ffffffffffffffffffffffffffffffffffffffff1673ffffffffffffffffffffffffffffffffffffffff16815260200190815260200160002060008201518160000160006101000a81548160ff02191690831515021790555060208201518160000160016101000a81548160ff0219169083151502179055509050507f668b14b635e60c984edc522ab57ecf4f7df5f95e912da87692905dc5aa111487336040516108229190610bcc565b60405180910390a1600190505b90565b82805461083e90610ea4565b90600052602060002090601f01602090048101928261086057600085556108a7565b82601f1061087957805160ff19168380011785556108a7565b828001600101855582156108a7579182015b828111156108a657825182559160200191906001019061088b565b5b5090506108b491906108b8565b5090565b5b808211156108d15760008160009055506001016108b9565b5090565b60006108e86108e384610d2d565b610d08565b90508281526020810184848401111561090457610903611011565b5b61090f848285610e62565b509392505050565b60008135905061092681611083565b92915050565b600082601f8301126109415761094061100c565b5b81356109518482602086016108d5565b91505092915050565b6000813590506109698161109a565b92915050565b6000602082840312156109855761098461101b565b5b600061099384828501610917565b91505092915050565b6000602082840312156109b2576109b161101b565b5b600082013567ffffffffffffffff8111156109d0576109cf611016565b5b6109dc8482850161092c565b91505092915050565b6000602082840312156109fb576109fa61101b565b5b6000610a098482850161095a565b91505092915050565b6000610a1e8383610b71565b905092915050565b610a2f81610e1a565b82525050565b6000610a4082610d6e565b610a4a8185610d91565b935083602082028501610a5c85610d5e565b8060005b85811015610a985784840389528151610a798582610a12565b9450610a8483610d84565b925060208a01995050600181019050610a60565b50829750879550505050505092915050565b610ab381610e2c565b82525050565b6000610ac482610d79565b610ace8185610da2565b9350610ade818560208601610e71565b610ae781611020565b840191505092915050565b6000610afd82610d79565b610b078185610db3565b9350610b17818560208601610e71565b610b2081611020565b840191505092915050565b6000610b38601683610db3565b9150610b4382611031565b602082019050919050565b6000610b5b600d83610db3565b9150610b668261105a565b602082019050919050565b60006040830160008301518482036000860152610b8e8282610ab9565b9150506020830151610ba36020860182610bae565b508091505092915050565b610bb781610e58565b82525050565b610bc681610e58565b82525050565b6000602082019050610be16000830184610a26565b92915050565b6000604082019050610bfc6000830185610a26565b610c096020830184610bbd565b9392505050565b60006020820190508181036000830152610c2a8184610a35565b905092915050565b6000604082019050610c476000830185610aaa565b610c546020830184610aaa565b9392505050565b60006020820190508181036000830152610c758184610af2565b905092915050565b60006040820190508181036000830152610c978185610af2565b9050610ca66020830184610bbd565b9392505050565b60006020820190508181036000830152610cc681610b2b565b9050919050565b60006020820190508181036000830152610ce681610b4e565b9050919050565b6000602082019050610d026000830184610bbd565b92915050565b6000610d12610d23565b9050610d1e8282610ed6565b919050565b6000604051905090565b600067ffffffffffffffff821115610d4857610d47610fdd565b5b610d5182611020565b9050602081019050919050565b6000819050602082019050919050565b600081519050919050565b600081519050919050565b6000602082019050919050565b600082825260208201905092915050565b600082825260208201905092915050565b600082825260208201905092915050565b6000610dcf82610e58565b9150610dda83610e58565b9250827fffffffffffffffffffffffffffffffffffffffffffffffffffffffffffffffff03821115610e0f57610e0e610f50565b5b828201905092915050565b6000610e2582610e38565b9050919050565b60008115159050919050565b600073ffffffffffffffffffffffffffffffffffffffff82169050919050565b6000819050919050565b82818337600083830152505050565b60005b83811015610e8f578082015181840152602081019050610e74565b83811115610e9e576000848401525b50505050565b60006002820490506001821680610ebc57607f821691505b60208210811415610ed057610ecf610f7f565b5b50919050565b610edf82611020565b810181811067ffffffffffffffff82111715610efe57610efd610fdd565b5b80604052505050565b6000610f1282610e58565b91507fffffffffffffffffffffffffffffffffffffffffffffffffffffffffffffffff821415610f4557610f44610f50565b5b600182019050919050565b7f4e487b7100000000000000000000000000000000000000000000000000000000600052601160045260246000fd5b7f4e487b7100000000000000000000000000000000000000000000000000000000600052602260045260246000fd5b7f4e487b7100000000000000000000000000000000000000000000000000000000600052603260045260246000fd5b7f4e487b7100000000000000000000000000000000000000000000000000000000600052604160045260246000fd5b600080fd5b600080fd5b600080fd5b600080fd5b6000601f19601f8301169050919050565b7f4e6f74207265676973746572656420746f20766f746500000000000000000000600082015250565b7f416c726561647920766f74656400000000000000000000000000000000000000600082015250565b61108c81610e1a565b811461109757600080fd5b50565b6110a381610e58565b81146110ae57600080fd5b5056fea2646970667358221220f99b230d9844f8b378c4bd84ff868bfe0a157a391f1ab64b8db098cd301b374964736f6c63430008060033",
			"opcodes": "PUSH1 0x80 PUSH1 0x40 MSTORE CALLVALUE DUP1 ISZERO PUSH3 0x11 JUMPI PUSH1 0x0 DUP1 REVERT JUMPDEST POP PUSH1 0x1 PUSH1 0x40 MLOAD DUP1 PUSH1 0x40 ADD PUSH1 0x40 MSTORE DUP1 PUSH1 0x40 MLOAD DUP1 PUSH1 0x40 ADD PUSH1 0x40 MSTORE DUP1 PUSH1 0xA DUP2 MSTORE PUSH1 0x20 ADD PUSH32 0x63616E6469646174653100000000000000000000000000000000000000000000 DUP2 MSTORE POP DUP2 MSTORE PUSH1 0x20 ADD PUSH1 0x0 DUP2 MSTORE POP SWAP1 DUP1 PUSH1 0x1 DUP2 SLOAD ADD DUP1 DUP3 SSTORE DUP1 SWAP2 POP POP PUSH1 0x1 SWAP1 SUB SWAP1 PUSH1 0x0 MSTORE PUSH1 0x20 PUSH1 0x0 KECCAK256 SWAP1 PUSH1 0x2 MUL ADD PUSH1 0x0 SWAP1 SWAP2 SWAP1 SWAP2 SWAP1 SWAP2 POP PUSH1 0x0 DUP3 ADD MLOAD DUP2 PUSH1 0x0 ADD SWAP1 DUP1 MLOAD SWAP1 PUSH1 0x20 ADD SWAP1 PUSH3 0xA6 SWAP3 SWAP2 SWAP1 PUSH3 0x1FB JUMP JUMPDEST POP PUSH1 0x20 DUP3 ADD MLOAD DUP2 PUSH1 0x1 ADD SSTORE POP POP PUSH1 0x1 PUSH1 0x40 MLOAD DUP1 PUSH1 0x40 ADD PUSH1 0x40 MSTORE DUP1 PUSH1 0x40 MLOAD DUP1 PUSH1 0x40 ADD PUSH1 0x40 MSTORE DUP1 PUSH1 0xA DUP2 MSTORE PUSH1 0x20 ADD PUSH32 0x63616E6469646174653200000000000000000000000000000000000000000000 DUP2 MSTORE POP DUP2 MSTORE PUSH1 0x20 ADD PUSH1 0x0 DUP2 MSTORE POP SWAP1 DUP1 PUSH1 0x1 DUP2 SLOAD ADD DUP1 DUP3 SSTORE DUP1 SWAP2 POP POP PUSH1 0x1 SWAP1 SUB SWAP1 PUSH1 0x0 MSTORE PUSH1 0x20 PUSH1 0x0 KECCAK256 SWAP1 PUSH1 0x2 MUL ADD PUSH1 0x0 SWAP1 SWAP2 SWAP1 SWAP2 SWAP1 SWAP2 POP PUSH1 0x0 DUP3 ADD MLOAD DUP2 PUSH1 0x0 ADD SWAP1 DUP1 MLOAD SWAP1 PUSH1 0x20 ADD SWAP1 PUSH3 0x147 SWAP3 SWAP2 SWAP1 PUSH3 0x1FB JUMP JUMPDEST POP PUSH1 0x20 DUP3 ADD MLOAD DUP2 PUSH1 0x1 ADD SSTORE POP POP PUSH1 0x1 PUSH1 0x40 MLOAD DUP1 PUSH1 0x40 ADD PUSH1 0x40 MSTORE DUP1 PUSH1 0x40 MLOAD DUP1 PUSH1 0x40 ADD PUSH1 0x40 MSTORE DUP1 PUSH1 0xA DUP2 MSTORE PUSH1 0x20 ADD PUSH32 0x63616E6469646174653300000000000000000000000000000000000000000000 DUP2 MSTORE POP DUP2 MSTORE PUSH1 0x20 ADD PUSH1 0x0 DUP2 MSTORE POP SWAP1 DUP1 PUSH1 0x1 DUP2 SLOAD ADD DUP1 DUP3 SSTORE DUP1 SWAP2 POP POP PUSH1 0x1 SWAP1 SUB SWAP1 PUSH1 0x0 MSTORE PUSH1 0x20 PUSH1 0x0 KECCAK256 SWAP1 PUSH1 0x2 MUL ADD PUSH1 0x0 SWAP1 SWAP2 SWAP1 SWAP2 SWAP1 SWAP2 POP PUSH1 0x0 DUP3 ADD MLOAD DUP2 PUSH1 0x0 ADD SWAP1 DUP1 MLOAD SWAP1 PUSH1 0x20 ADD SWAP1 PUSH3 0x1E8 SWAP3 SWAP2 SWAP1 PUSH3 0x1FB JUMP JUMPDEST POP PUSH1 0x20 DUP3 ADD MLOAD DUP2 PUSH1 0x1 ADD SSTORE POP POP PUSH3 0x310 JUMP JUMPDEST DUP3 DUP1 SLOAD PUSH3 0x209 SWAP1 PUSH3 0x2AB JUMP JUMPDEST SWAP1 PUSH1 0x0 MSTORE PUSH1 0x20 PUSH1 0x0 KECCAK256 SWAP1 PUSH1 0x1F ADD PUSH1 0x20 SWAP1 DIV DUP2 ADD SWAP3 DUP3 PUSH3 0x22D JUMPI PUSH1 0x0 DUP6 SSTORE PUSH3 0x279 JUMP JUMPDEST DUP3 PUSH1 0x1F LT PUSH3 0x248 JUMPI DUP1 MLOAD PUSH1 0xFF NOT AND DUP4 DUP1 ADD OR DUP6 SSTORE PUSH3 0x279 JUMP JUMPDEST DUP3 DUP1 ADD PUSH1 0x1 ADD DUP6 SSTORE DUP3 ISZERO PUSH3 0x279 JUMPI SWAP2 DUP3 ADD JUMPDEST DUP3 DUP2 GT ISZERO PUSH3 0x278 JUMPI DUP3 MLOAD DUP3 SSTORE SWAP2 PUSH1 0x20 ADD SWAP2 SWAP1 PUSH1 0x1 ADD SWAP1 PUSH3 0x25B JUMP JUMPDEST JUMPDEST POP SWAP1 POP PUSH3 0x288 SWAP2 SWAP1 PUSH3 0x28C JUMP JUMPDEST POP SWAP1 JUMP JUMPDEST JUMPDEST DUP1 DUP3 GT ISZERO PUSH3 0x2A7 JUMPI PUSH1 0x0 DUP2 PUSH1 0x0 SWAP1 SSTORE POP PUSH1 0x1 ADD PUSH3 0x28D JUMP JUMPDEST POP SWAP1 JUMP JUMPDEST PUSH1 0x0 PUSH1 0x2 DUP3 DIV SWAP1 POP PUSH1 0x1 DUP3 AND DUP1 PUSH3 0x2C4 JUMPI PUSH1 0x7F DUP3 AND SWAP2 POP JUMPDEST PUSH1 0x20 DUP3 LT DUP2 EQ ISZERO PUSH3 0x2DB JUMPI PUSH3 0x2DA PUSH3 0x2E1 JUMP JUMPDEST JUMPDEST POP SWAP2 SWAP1 POP JUMP JUMPDEST PUSH32 0x4E487B7100000000000000000000000000000000000000000000000000000000 PUSH1 0x0 MSTORE PUSH1 0x22 PUSH1 0x4 MSTORE PUSH1 0x24 PUSH1 0x0 REVERT JUMPDEST PUSH2 0x10E7 DUP1 PUSH3 0x320 PUSH1 0x0 CODECOPY PUSH1 0x0 RETURN INVALID PUSH1 0x80 PUSH1 0x40 MSTORE CALLVALUE DUP1 ISZERO PUSH2 0x10 JUMPI PUSH1 0x0 DUP1 REVERT JUMPDEST POP PUSH1 0x4 CALLDATASIZE LT PUSH2 0x88 JUMPI PUSH1 0x0 CALLDATALOAD PUSH1 0xE0 SHR DUP1 PUSH4 0x50D85315 GT PUSH2 0x5B JUMPI DUP1 PUSH4 0x50D85315 EQ PUSH2 0x114 JUMPI DUP1 PUSH4 0x8E7EA5B2 EQ PUSH2 0x132 JUMPI DUP1 PUSH4 0xA3EC138D EQ PUSH2 0x150 JUMPI DUP1 PUSH4 0xECB617D9 EQ PUSH2 0x181 JUMPI PUSH2 0x88 JUMP JUMPDEST DUP1 PUSH4 0x39B925A EQ PUSH2 0x8D JUMPI DUP1 PUSH4 0x6A49FCE EQ PUSH2 0xA9 JUMPI DUP1 PUSH4 0x3477EE2E EQ PUSH2 0xC7 JUMPI DUP1 PUSH4 0x3EB76B9C EQ PUSH2 0xF8 JUMPI JUMPDEST PUSH1 0x0 DUP1 REVERT JUMPDEST PUSH2 0xA7 PUSH1 0x4 DUP1 CALLDATASIZE SUB DUP2 ADD SWAP1 PUSH2 0xA2 SWAP2 SWAP1 PUSH2 0x99C JUMP JUMPDEST PUSH2 0x19F JUMP JUMPDEST STOP JUMPDEST PUSH2 0xB1 PUSH2 0x1B9 JUMP JUMPDEST PUSH1 0x40 MLOAD PUSH2 0xBE SWAP2 SWAP1 PUSH2 0xC10 JUMP JUMPDEST PUSH1 0x40 MLOAD DUP1 SWAP2 SUB SWAP1 RETURN JUMPDEST PUSH2 0xE1 PUSH1 0x4 DUP1 CALLDATASIZE SUB DUP2 ADD SWAP1 PUSH2 0xDC SWAP2 SWAP1 PUSH2 0x9E5 JUMP JUMPDEST PUSH2 0x2B4 JUMP JUMPDEST PUSH1 0x40 MLOAD PUSH2 0xEF SWAP3 SWAP2 SWAP1 PUSH2 0xC7D JUMP JUMPDEST PUSH1 0x40 MLOAD DUP1 SWAP2 SUB SWAP1 RETURN JUMPDEST PUSH2 0x112 PUSH1 0x4 DUP1 CALLDATASIZE SUB DUP2 ADD SWAP1 PUSH2 0x10D SWAP2 SWAP1 PUSH2 0x9E5 JUMP JUMPDEST PUSH2 0x370 JUMP JUMPDEST STOP JUMPDEST PUSH2 0x11C PUSH2 0x4EC JUMP JUMPDEST PUSH1 0x40 MLOAD PUSH2 0x129 SWAP2 SWAP1 PUSH2 0xC5B JUMP JUMPDEST PUSH1 0x40 MLOAD DUP1 SWAP2 SUB SWAP1 RETURN JUMPDEST PUSH2 0x13A PUSH2 0x57E JUMP JUMPDEST PUSH1 0x40 MLOAD PUSH2 0x147 SWAP2 SWAP1 PUSH2 0xC5B JUMP JUMPDEST PUSH1 0x40 MLOAD DUP1 SWAP2 SUB SWAP1 RETURN JUMPDEST PUSH2 0x16A PUSH1 0x4 DUP1 CALLDATASIZE SUB DUP2 ADD SWAP1 PUSH2 0x165 SWAP2 SWAP1 PUSH2 0x96F JUMP JUMPDEST PUSH2 0x6B8 JUMP JUMPDEST PUSH1 0x40 MLOAD PUSH2 0x178 SWAP3 SWAP2 SWAP1 PUSH2 0xC32 JUMP JUMPDEST PUSH1 0x40 MLOAD DUP1 SWAP2 SUB SWAP1 RETURN JUMPDEST PUSH2 0x189 PUSH2 0x6F6 JUMP JUMPDEST PUSH1 0x40 MLOAD PUSH2 0x196 SWAP2 SWAP1 PUSH2 0xCED JUMP JUMPDEST PUSH1 0x40 MLOAD DUP1 SWAP2 SUB SWAP1 RETURN JUMPDEST DUP1 PUSH1 0x0 SWAP1 DUP1 MLOAD SWAP1 PUSH1 0x20 ADD SWAP1 PUSH2 0x1B5 SWAP3 SWAP2 SWAP1 PUSH2 0x832 JUMP JUMPDEST POP POP JUMP JUMPDEST PUSH1 0x60 PUSH1 0x1 DUP1 SLOAD DUP1 PUSH1 0x20 MUL PUSH1 0x20 ADD PUSH1 0x40 MLOAD SWAP1 DUP2 ADD PUSH1 0x40 MSTORE DUP1 SWAP3 SWAP2 SWAP1 DUP2 DUP2 MSTORE PUSH1 0x20 ADD PUSH1 0x0 SWAP1 JUMPDEST DUP3 DUP3 LT ISZERO PUSH2 0x2AB JUMPI DUP4 DUP3 SWAP1 PUSH1 0x0 MSTORE PUSH1 0x20 PUSH1 0x0 KECCAK256 SWAP1 PUSH1 0x2 MUL ADD PUSH1 0x40 MLOAD DUP1 PUSH1 0x40 ADD PUSH1 0x40 MSTORE SWAP1 DUP2 PUSH1 0x0 DUP3 ADD DUP1 SLOAD PUSH2 0x210 SWAP1 PUSH2 0xEA4 JUMP JUMPDEST DUP1 PUSH1 0x1F ADD PUSH1 0x20 DUP1 SWAP2 DIV MUL PUSH1 0x20 ADD PUSH1 0x40 MLOAD SWAP1 DUP2 ADD PUSH1 0x40 MSTORE DUP1 SWAP3 SWAP2 SWAP1 DUP2 DUP2 MSTORE PUSH1 0x20 ADD DUP3 DUP1 SLOAD PUSH2 0x23C SWAP1 PUSH2 0xEA4 JUMP JUMPDEST DUP1 ISZERO PUSH2 0x289 JUMPI DUP1 PUSH1 0x1F LT PUSH2 0x25E JUMPI PUSH2 0x100 DUP1 DUP4 SLOAD DIV MUL DUP4 MSTORE SWAP2 PUSH1 0x20 ADD SWAP2 PUSH2 0x289 JUMP JUMPDEST DUP3 ADD SWAP2 SWAP1 PUSH1 0x0 MSTORE PUSH1 0x20 PUSH1 0x0 KECCAK256 SWAP1 JUMPDEST DUP2 SLOAD DUP2 MSTORE SWAP1 PUSH1 0x1 ADD SWAP1 PUSH1 0x20 ADD DUP1 DUP4 GT PUSH2 0x26C JUMPI DUP3 SWAP1 SUB PUSH1 0x1F AND DUP3 ADD SWAP2 JUMPDEST POP POP POP POP POP DUP2 MSTORE PUSH1 0x20 ADD PUSH1 0x1 DUP3 ADD SLOAD DUP2 MSTORE POP POP DUP2 MSTORE PUSH1 0x20 ADD SWAP1 PUSH1 0x1 ADD SWAP1 PUSH2 0x1DD JUMP JUMPDEST POP POP POP POP SWAP1 POP SWAP1 JUMP JUMPDEST PUSH1 0x1 DUP2 DUP2 SLOAD DUP2 LT PUSH2 0x2C4 JUMPI PUSH1 0x0 DUP1 REVERT JUMPDEST SWAP1 PUSH1 0x0 MSTORE PUSH1 0x20 PUSH1 0x0 KECCAK256 SWAP1 PUSH1 0x2 MUL ADD PUSH1 0x0 SWAP2 POP SWAP1 POP DUP1 PUSH1 0x0 ADD DUP1 SLOAD PUSH2 0x2E7 SWAP1 PUSH2 0xEA4 JUMP JUMPDEST DUP1 PUSH1 0x1F ADD PUSH1 0x20 DUP1 SWAP2 DIV MUL PUSH1 0x20 ADD PUSH1 0x40 MLOAD SWAP1 DUP2 ADD PUSH1 0x40 MSTORE DUP1 SWAP3 SWAP2 SWAP1 DUP2 DUP2 MSTORE PUSH1 0x20 ADD DUP3 DUP1 SLOAD PUSH2 0x313 SWAP1 PUSH2 0xEA4 JUMP JUMPDEST DUP1 ISZERO PUSH2 0x360 JUMPI DUP1 PUSH1 0x1F LT PUSH2 0x335 JUMPI PUSH2 0x100 DUP1 DUP4 SLOAD DIV MUL DUP4 MSTORE SWAP2 PUSH1 0x20 ADD SWAP2 PUSH2 0x360 JUMP JUMPDEST DUP3 ADD SWAP2 SWAP1 PUSH1 0x0 MSTORE PUSH1 0x20 PUSH1 0x0 KECCAK256 SWAP1 JUMPDEST DUP2 SLOAD DUP2 MSTORE SWAP1 PUSH1 0x1 ADD SWAP1 PUSH1 0x20 ADD DUP1 DUP4 GT PUSH2 0x343 JUMPI DUP3 SWAP1 SUB PUSH1 0x1F AND DUP3 ADD SWAP2 JUMPDEST POP POP POP POP POP SWAP1 DUP1 PUSH1 0x1 ADD SLOAD SWAP1 POP DUP3 JUMP JUMPDEST PUSH1 0x0 PUSH1 0x2 PUSH1 0x0 CALLER PUSH20 0xFFFFFFFFFFFFFFFFFFFFFFFFFFFFFFFFFFFFFFFF AND PUSH20 0xFFFFFFFFFFFFFFFFFFFFFFFFFFFFFFFFFFFFFFFF AND DUP2 MSTORE PUSH1 0x20 ADD SWAP1 DUP2 MSTORE PUSH1 0x20 ADD PUSH1 0x0 KECCAK256 SWAP1 POP DUP1 PUSH1 0x0 ADD PUSH1 0x0 SWAP1 SLOAD SWAP1 PUSH2 0x100 EXP SWAP1 DIV PUSH1 0xFF AND PUSH2 0x404 JUMPI PUSH1 0x40 MLOAD PUSH32 0x8C379A000000000000000000000000000000000000000000000000000000000 DUP2 MSTORE PUSH1 0x4 ADD PUSH2 0x3FB SWAP1 PUSH2 0xCAD JUMP JUMPDEST PUSH1 0x40 MLOAD DUP1 SWAP2 SUB SWAP1 REVERT JUMPDEST DUP1 PUSH1 0x0 ADD PUSH1 0x1 SWAP1 SLOAD SWAP1 PUSH2 0x100 EXP SWAP1 DIV PUSH1 0xFF AND ISZERO PUSH2 0x456 JUMPI PUSH1 0x40 MLOAD PUSH32 0x8C379A000000000000000000000000000000000000000000000000000000000 DUP2 MSTORE PUSH1 0x4 ADD PUSH2 0x44D SWAP1 PUSH2 0xCCD JUMP JUMPDEST PUSH1 0x40 MLOAD DUP1 SWAP2 SUB SWAP1 REVERT JUMPDEST PUSH1 0x1 DUP2 PUSH1 0x0 ADD PUSH1 0x1 PUSH2 0x100 EXP DUP2 SLOAD DUP2 PUSH1 0xFF MUL NOT AND SWAP1 DUP4 ISZERO ISZERO MUL OR SWAP1 SSTORE POP PUSH1 0x1 DUP1 DUP4 DUP2 SLOAD DUP2 LT PUSH2 0x488 JUMPI PUSH2 0x487 PUSH2 0xFAE JUMP JUMPDEST JUMPDEST SWAP1 PUSH1 0x0 MSTORE PUSH1 0x20 PUSH1 0x0 KECCAK256 SWAP1 PUSH1 0x2 MUL ADD PUSH1 0x1 ADD PUSH1 0x0 DUP3 DUP3 SLOAD PUSH2 0x4A8 SWAP2 SWAP1 PUSH2 0xDC4 JUMP JUMPDEST SWAP3 POP POP DUP2 SWAP1 SSTORE POP PUSH32 0xA36CC2BEBB74DB33E9F88110A07EF56E1B31B24B4C4F51B54B1664266E29F45B CALLER DUP4 PUSH1 0x40 MLOAD PUSH2 0x4E0 SWAP3 SWAP2 SWAP1 PUSH2 0xBE7 JUMP JUMPDEST PUSH1 0x40 MLOAD DUP1 SWAP2 SUB SWAP1 LOG1 POP POP JUMP JUMPDEST PUSH1 0x60 PUSH1 0x0 DUP1 SLOAD PUSH2 0x4FB SWAP1 PUSH2 0xEA4 JUMP JUMPDEST DUP1 PUSH1 0x1F ADD PUSH1 0x20 DUP1 SWAP2 DIV MUL PUSH1 0x20 ADD PUSH1 0x40 MLOAD SWAP1 DUP2 ADD PUSH1 0x40 MSTORE DUP1 SWAP3 SWAP2 SWAP1 DUP2 DUP2 MSTORE PUSH1 0x20 ADD DUP3 DUP1 SLOAD PUSH2 0x527 SWAP1 PUSH2 0xEA4 JUMP JUMPDEST DUP1 ISZERO PUSH2 0x574 JUMPI DUP1 PUSH1 0x1F LT PUSH2 0x549 JUMPI PUSH2 0x100 DUP1 DUP4 SLOAD DIV MUL DUP4 MSTORE SWAP2 PUSH1 0x20 ADD SWAP2 PUSH2 0x574 JUMP JUMPDEST DUP3 ADD SWAP2 SWAP1 PUSH1 0x0 MSTORE PUSH1 0x20 PUSH1 0x0 KECCAK256 SWAP1 JUMPDEST DUP2 SLOAD DUP2 MSTORE SWAP1 PUSH1 0x1 ADD SWAP1 PUSH1 0x20 ADD DUP1 DUP4 GT PUSH2 0x557 JUMPI DUP3 SWAP1 SUB PUSH1 0x1F AND DUP3 ADD SWAP2 JUMPDEST POP POP POP POP POP SWAP1 POP SWAP1 JUMP JUMPDEST PUSH1 0x60 PUSH1 0x0 DUP1 DUP1 PUSH1 0x0 SWAP1 POP JUMPDEST PUSH1 0x1 DUP1 SLOAD SWAP1 POP DUP2 LT ISZERO PUSH2 0x602 JUMPI DUP3 PUSH1 0x1 DUP3 DUP2 SLOAD DUP2 LT PUSH2 0x5AB JUMPI PUSH2 0x5AA PUSH2 0xFAE JUMP JUMPDEST JUMPDEST SWAP1 PUSH1 0x0 MSTORE PUSH1 0x20 PUSH1 0x0 KECCAK256 SWAP1 PUSH1 0x2 MUL ADD PUSH1 0x1 ADD SLOAD GT ISZERO PUSH2 0x5EF JUMPI PUSH1 0x1 DUP2 DUP2 SLOAD DUP2 LT PUSH2 0x5D7 JUMPI PUSH2 0x5D6 PUSH2 0xFAE JUMP JUMPDEST JUMPDEST SWAP1 PUSH1 0x0 MSTORE PUSH1 0x20 PUSH1 0x0 KECCAK256 SWAP1 PUSH1 0x2 MUL ADD PUSH1 0x1 ADD SLOAD SWAP3 POP DUP1 SWAP2 POP JUMPDEST DUP1 DUP1 PUSH2 0x5FA SWAP1 PUSH2 0xF07 JUMP JUMPDEST SWAP2 POP POP PUSH2 0x589 JUMP JUMPDEST POP PUSH1 0x1 DUP2 DUP2 SLOAD DUP2 LT PUSH2 0x617 JUMPI PUSH2 0x616 PUSH2 0xFAE JUMP JUMPDEST JUMPDEST SWAP1 PUSH1 0x0 MSTORE PUSH1 0x20 PUSH1 0x0 KECCAK256 SWAP1 PUSH1 0x2 MUL ADD PUSH1 0x0 ADD DUP1 SLOAD PUSH2 0x633 SWAP1 PUSH2 0xEA4 JUMP JUMPDEST DUP1 PUSH1 0x1F ADD PUSH1 0x20 DUP1 SWAP2 DIV MUL PUSH1 0x20 ADD PUSH1 0x40 MLOAD SWAP1 DUP2 ADD PUSH1 0x40 MSTORE DUP1 SWAP3 SWAP2 SWAP1 DUP2 DUP2 MSTORE PUSH1 0x20 ADD DUP3 DUP1 SLOAD PUSH2 0x65F SWAP1 PUSH2 0xEA4 JUMP JUMPDEST DUP1 ISZERO PUSH2 0x6AC JUMPI DUP1 PUSH1 0x1F LT PUSH2 0x681 JUMPI PUSH2 0x100 DUP1 DUP4 SLOAD DIV MUL DUP4 MSTORE SWAP2 PUSH1 0x20 ADD SWAP2 PUSH2 0x6AC JUMP JUMPDEST DUP3 ADD SWAP2 SWAP1 PUSH1 0x0 MSTORE PUSH1 0x20 PUSH1 0x0 KECCAK256 SWAP1 JUMPDEST DUP2 SLOAD DUP2 MSTORE SWAP1 PUSH1 0x1 ADD SWAP1 PUSH1 0x20 ADD DUP1 DUP4 GT PUSH2 0x68F JUMPI DUP3 SWAP1 SUB PUSH1 0x1F AND DUP3 ADD SWAP2 JUMPDEST POP POP POP POP POP SWAP3 POP POP POP SWAP1 JUMP JUMPDEST PUSH1 0x2 PUSH1 0x20 MSTORE DUP1 PUSH1 0x0 MSTORE PUSH1 0x40 PUSH1 0x0 KECCAK256 PUSH1 0x0 SWAP2 POP SWAP1 POP DUP1 PUSH1 0x0 ADD PUSH1 0x0 SWAP1 SLOAD SWAP1 PUSH2 0x100 EXP SWAP1 DIV PUSH1 0xFF AND SWAP1 DUP1 PUSH1 0x0 ADD PUSH1 0x1 SWAP1 SLOAD SWAP1 PUSH2 0x100 EXP SWAP1 DIV PUSH1 0xFF AND SWAP1 POP DUP3 JUMP JUMPDEST PUSH1 0x0 PUSH1 0x2 PUSH1 0x0 CALLER PUSH20 0xFFFFFFFFFFFFFFFFFFFFFFFFFFFFFFFFFFFFFFFF AND PUSH20 0xFFFFFFFFFFFFFFFFFFFFFFFFFFFFFFFFFFFFFFFF AND DUP2 MSTORE PUSH1 0x20 ADD SWAP1 DUP2 MSTORE PUSH1 0x20 ADD PUSH1 0x0 KECCAK256 PUSH1 0x0 ADD PUSH1 0x0 SWAP1 SLOAD SWAP1 PUSH2 0x100 EXP SWAP1 DIV PUSH1 0xFF AND ISZERO PUSH2 0x756 JUMPI PUSH1 0x0 SWAP1 POP PUSH2 0x82F JUMP JUMPDEST PUSH1 0x40 MLOAD DUP1 PUSH1 0x40 ADD PUSH1 0x40 MSTORE DUP1 PUSH1 0x1 ISZERO ISZERO DUP2 MSTORE PUSH1 0x20 ADD PUSH1 0x0 ISZERO ISZERO DUP2 MSTORE POP PUSH1 0x2 PUSH1 0x0 CALLER PUSH20 0xFFFFFFFFFFFFFFFFFFFFFFFFFFFFFFFFFFFFFFFF AND PUSH20 0xFFFFFFFFFFFFFFFFFFFFFFFFFFFFFFFFFFFFFFFF AND DUP2 MSTORE PUSH1 0x20 ADD SWAP1 DUP2 MSTORE PUSH1 0x20 ADD PUSH1 0x0 KECCAK256 PUSH1 0x0 DUP3 ADD MLOAD DUP2 PUSH1 0x0 ADD PUSH1 0x0 PUSH2 0x100 EXP DUP2 SLOAD DUP2 PUSH1 0xFF MUL NOT AND SWAP1 DUP4 ISZERO ISZERO MUL OR SWAP1 SSTORE POP PUSH1 0x20 DUP3 ADD MLOAD DUP2 PUSH1 0x0 ADD PUSH1 0x1 PUSH2 0x100 EXP DUP2 SLOAD DUP2 PUSH1 0xFF MUL NOT AND SWAP1 DUP4 ISZERO ISZERO MUL OR SWAP1 SSTORE POP SWAP1 POP POP PUSH32 0x668B14B635E60C984EDC522AB57ECF4F7DF5F95E912DA87692905DC5AA111487 CALLER PUSH1 0x40 MLOAD PUSH2 0x822 SWAP2 SWAP1 PUSH2 0xBCC JUMP JUMPDEST PUSH1 0x40 MLOAD DUP1 SWAP2 SUB SWAP1 LOG1 PUSH1 0x1 SWAP1 POP JUMPDEST SWAP1 JUMP JUMPDEST DUP3 DUP1 SLOAD PUSH2 0x83E SWAP1 PUSH2 0xEA4 JUMP JUMPDEST SWAP1 PUSH1 0x0 MSTORE PUSH1 0x20 PUSH1 0x0 KECCAK256 SWAP1 PUSH1 0x1F ADD PUSH1 0x20 SWAP1 DIV DUP2 ADD SWAP3 DUP3 PUSH2 0x860 JUMPI PUSH1 0x0 DUP6 SSTORE PUSH2 0x8A7 JUMP JUMPDEST DUP3 PUSH1 0x1F LT PUSH2 0x879 JUMPI DUP1 MLOAD PUSH1 0xFF NOT AND DUP4 DUP1 ADD OR DUP6 SSTORE PUSH2 0x8A7 JUMP JUMPDEST DUP3 DUP1 ADD PUSH1 0x1 ADD DUP6 SSTORE DUP3 ISZERO PUSH2 0x8A7 JUMPI SWAP2 DUP3 ADD JUMPDEST DUP3 DUP2 GT ISZERO PUSH2 0x8A6 JUMPI DUP3 MLOAD DUP3 SSTORE SWAP2 PUSH1 0x20 ADD SWAP2 SWAP1 PUSH1 0x1 ADD SWAP1 PUSH2 0x88B JUMP JUMPDEST JUMPDEST POP SWAP1 POP PUSH2 0x8B4 SWAP2 SWAP1 PUSH2 0x8B8 JUMP JUMPDEST POP SWAP1 JUMP JUMPDEST JUMPDEST DUP1 DUP3 GT ISZERO PUSH2 0x8D1 JUMPI PUSH1 0x0 DUP2 PUSH1 0x0 SWAP1 SSTORE POP PUSH1 0x1 ADD PUSH2 0x8B9 JUMP JUMPDEST POP SWAP1 JUMP JUMPDEST PUSH1 0x0 PUSH2 0x8E8 PUSH2 0x8E3 DUP5 PUSH2 0xD2D JUMP JUMPDEST PUSH2 0xD08 JUMP JUMPDEST SWAP1 POP DUP3 DUP2 MSTORE PUSH1 0x20 DUP2 ADD DUP5 DUP5 DUP5 ADD GT ISZERO PUSH2 0x904 JUMPI PUSH2 0x903 PUSH2 0x1011 JUMP JUMPDEST JUMPDEST PUSH2 0x90F DUP5 DUP3 DUP6 PUSH2 0xE62 JUMP JUMPDEST POP SWAP4 SWAP3 POP POP POP JUMP JUMPDEST PUSH1 0x0 DUP2 CALLDATALOAD SWAP1 POP PUSH2 0x926 DUP2 PUSH2 0x1083 JUMP JUMPDEST SWAP3 SWAP2 POP POP JUMP JUMPDEST PUSH1 0x0 DUP3 PUSH1 0x1F DUP4 ADD SLT PUSH2 0x941 JUMPI PUSH2 0x940 PUSH2 0x100C JUMP JUMPDEST JUMPDEST DUP2 CALLDATALOAD PUSH2 0x951 DUP5 DUP3 PUSH1 0x20 DUP7 ADD PUSH2 0x8D5 JUMP JUMPDEST SWAP2 POP POP SWAP3 SWAP2 POP POP JUMP JUMPDEST PUSH1 0x0 DUP2 CALLDATALOAD SWAP1 POP PUSH2 0x969 DUP2 PUSH2 0x109A JUMP JUMPDEST SWAP3 SWAP2 POP POP JUMP JUMPDEST PUSH1 0x0 PUSH1 0x20 DUP3 DUP5 SUB SLT ISZERO PUSH2 0x985 JUMPI PUSH2 0x984 PUSH2 0x101B JUMP JUMPDEST JUMPDEST PUSH1 0x0 PUSH2 0x993 DUP5 DUP3 DUP6 ADD PUSH2 0x917 JUMP JUMPDEST SWAP2 POP POP SWAP3 SWAP2 POP POP JUMP JUMPDEST PUSH1 0x0 PUSH1 0x20 DUP3 DUP5 SUB SLT ISZERO PUSH2 0x9B2 JUMPI PUSH2 0x9B1 PUSH2 0x101B JUMP JUMPDEST JUMPDEST PUSH1 0x0 DUP3 ADD CALLDATALOAD PUSH8 0xFFFFFFFFFFFFFFFF DUP2 GT ISZERO PUSH2 0x9D0 JUMPI PUSH2 0x9CF PUSH2 0x1016 JUMP JUMPDEST JUMPDEST PUSH2 0x9DC DUP5 DUP3 DUP6 ADD PUSH2 0x92C JUMP JUMPDEST SWAP2 POP POP SWAP3 SWAP2 POP POP JUMP JUMPDEST PUSH1 0x0 PUSH1 0x20 DUP3 DUP5 SUB SLT ISZERO PUSH2 0x9FB JUMPI PUSH2 0x9FA PUSH2 0x101B JUMP JUMPDEST JUMPDEST PUSH1 0x0 PUSH2 0xA09 DUP5 DUP3 DUP6 ADD PUSH2 0x95A JUMP JUMPDEST SWAP2 POP POP SWAP3 SWAP2 POP POP JUMP JUMPDEST PUSH1 0x0 PUSH2 0xA1E DUP4 DUP4 PUSH2 0xB71 JUMP JUMPDEST SWAP1 POP SWAP3 SWAP2 POP POP JUMP JUMPDEST PUSH2 0xA2F DUP2 PUSH2 0xE1A JUMP JUMPDEST DUP3 MSTORE POP POP JUMP JUMPDEST PUSH1 0x0 PUSH2 0xA40 DUP3 PUSH2 0xD6E JUMP JUMPDEST PUSH2 0xA4A DUP2 DUP6 PUSH2 0xD91 JUMP JUMPDEST SWAP4 POP DUP4 PUSH1 0x20 DUP3 MUL DUP6 ADD PUSH2 0xA5C DUP6 PUSH2 0xD5E JUMP JUMPDEST DUP1 PUSH1 0x0 JUMPDEST DUP6 DUP2 LT ISZERO PUSH2 0xA98 JUMPI DUP5 DUP5 SUB DUP10 MSTORE DUP2 MLOAD PUSH2 0xA79 DUP6 DUP3 PUSH2 0xA12 JUMP JUMPDEST SWAP5 POP PUSH2 0xA84 DUP4 PUSH2 0xD84 JUMP JUMPDEST SWAP3 POP PUSH1 0x20 DUP11 ADD SWAP10 POP POP PUSH1 0x1 DUP2 ADD SWAP1 POP PUSH2 0xA60 JUMP JUMPDEST POP DUP3 SWAP8 POP DUP8 SWAP6 POP POP POP POP POP POP SWAP3 SWAP2 POP POP JUMP JUMPDEST PUSH2 0xAB3 DUP2 PUSH2 0xE2C JUMP JUMPDEST DUP3 MSTORE POP POP JUMP JUMPDEST PUSH1 0x0 PUSH2 0xAC4 DUP3 PUSH2 0xD79 JUMP JUMPDEST PUSH2 0xACE DUP2 DUP6 PUSH2 0xDA2 JUMP JUMPDEST SWAP4 POP PUSH2 0xADE DUP2 DUP6 PUSH1 0x20 DUP7 ADD PUSH2 0xE71 JUMP JUMPDEST PUSH2 0xAE7 DUP2 PUSH2 0x1020 JUMP JUMPDEST DUP5 ADD SWAP2 POP POP SWAP3 SWAP2 POP POP JUMP JUMPDEST PUSH1 0x0 PUSH2 0xAFD DUP3 PUSH2 0xD79 JUMP JUMPDEST PUSH2 0xB07 DUP2 DUP6 PUSH2 0xDB3 JUMP JUMPDEST SWAP4 POP PUSH2 0xB17 DUP2 DUP6 PUSH1 0x20 DUP7 ADD PUSH2 0xE71 JUMP JUMPDEST PUSH2 0xB20 DUP2 PUSH2 0x1020 JUMP JUMPDEST DUP5 ADD SWAP2 POP POP SWAP3 SWAP2 POP POP JUMP JUMPDEST PUSH1 0x0 PUSH2 0xB38 PUSH1 0x16 DUP4 PUSH2 0xDB3 JUMP JUMPDEST SWAP2 POP PUSH2 0xB43 DUP3 PUSH2 0x1031 JUMP JUMPDEST PUSH1 0x20 DUP3 ADD SWAP1 POP SWAP2 SWAP1 POP JUMP JUMPDEST PUSH1 0x0 PUSH2 0xB5B PUSH1 0xD DUP4 PUSH2 0xDB3 JUMP JUMPDEST SWAP2 POP PUSH2 0xB66 DUP3 PUSH2 0x105A JUMP JUMPDEST PUSH1 0x20 DUP3 ADD SWAP1 POP SWAP2 SWAP1 POP JUMP JUMPDEST PUSH1 0x0 PUSH1 0x40 DUP4 ADD PUSH1 0x0 DUP4 ADD MLOAD DUP5 DUP3 SUB PUSH1 0x0 DUP7 ADD MSTORE PUSH2 0xB8E DUP3 DUP3 PUSH2 0xAB9 JUMP JUMPDEST SWAP2 POP POP PUSH1 0x20 DUP4 ADD MLOAD PUSH2 0xBA3 PUSH1 0x20 DUP7 ADD DUP3 PUSH2 0xBAE JUMP JUMPDEST POP DUP1 SWAP2 POP POP SWAP3 SWAP2 POP POP JUMP JUMPDEST PUSH2 0xBB7 DUP2 PUSH2 0xE58 JUMP JUMPDEST DUP3 MSTORE POP POP JUMP JUMPDEST PUSH2 0xBC6 DUP2 PUSH2 0xE58 JUMP JUMPDEST DUP3 MSTORE POP POP JUMP JUMPDEST PUSH1 0x0 PUSH1 0x20 DUP3 ADD SWAP1 POP PUSH2 0xBE1 PUSH1 0x0 DUP4 ADD DUP5 PUSH2 0xA26 JUMP JUMPDEST SWAP3 SWAP2 POP POP JUMP JUMPDEST PUSH1 0x0 PUSH1 0x40 DUP3 ADD SWAP1 POP PUSH2 0xBFC PUSH1 0x0 DUP4 ADD DUP6 PUSH2 0xA26 JUMP JUMPDEST PUSH2 0xC09 PUSH1 0x20 DUP4 ADD DUP5 PUSH2 0xBBD JUMP JUMPDEST SWAP4 SWAP3 POP POP POP JUMP JUMPDEST PUSH1 0x0 PUSH1 0x20 DUP3 ADD SWAP1 POP DUP2 DUP2 SUB PUSH1 0x0 DUP4 ADD MSTORE PUSH2 0xC2A DUP2 DUP5 PUSH2 0xA35 JUMP JUMPDEST SWAP1 POP SWAP3 SWAP2 POP POP JUMP JUMPDEST PUSH1 0x0 PUSH1 0x40 DUP3 ADD SWAP1 POP PUSH2 0xC47 PUSH1 0x0 DUP4 ADD DUP6 PUSH2 0xAAA JUMP JUMPDEST PUSH2 0xC54 PUSH1 0x20 DUP4 ADD DUP5 PUSH2 0xAAA JUMP JUMPDEST SWAP4 SWAP3 POP POP POP JUMP JUMPDEST PUSH1 0x0 PUSH1 0x20 DUP3 ADD SWAP1 POP DUP2 DUP2 SUB PUSH1 0x0 DUP4 ADD MSTORE PUSH2 0xC75 DUP2 DUP5 PUSH2 0xAF2 JUMP JUMPDEST SWAP1 POP SWAP3 SWAP2 POP POP JUMP JUMPDEST PUSH1 0x0 PUSH1 0x40 DUP3 ADD SWAP1 POP DUP2 DUP2 SUB PUSH1 0x0 DUP4 ADD MSTORE PUSH2 0xC97 DUP2 DUP6 PUSH2 0xAF2 JUMP JUMPDEST SWAP1 POP PUSH2 0xCA6 PUSH1 0x20 DUP4 ADD DUP5 PUSH2 0xBBD JUMP JUMPDEST SWAP4 SWAP3 POP POP POP JUMP JUMPDEST PUSH1 0x0 PUSH1 0x20 DUP3 ADD SWAP1 POP DUP2 DUP2 SUB PUSH1 0x0 DUP4 ADD MSTORE PUSH2 0xCC6 DUP2 PUSH2 0xB2B JUMP JUMPDEST SWAP1 POP SWAP2 SWAP1 POP JUMP JUMPDEST PUSH1 0x0 PUSH1 0x20 DUP3 ADD SWAP1 POP DUP2 DUP2 SUB PUSH1 0x0 DUP4 ADD MSTORE PUSH2 0xCE6 DUP2 PUSH2 0xB4E JUMP JUMPDEST SWAP1 POP SWAP2 SWAP1 POP JUMP JUMPDEST PUSH1 0x0 PUSH1 0x20 DUP3 ADD SWAP1 POP PUSH2 0xD02 PUSH1 0x0 DUP4 ADD DUP5 PUSH2 0xBBD JUMP JUMPDEST SWAP3 SWAP2 POP POP JUMP JUMPDEST PUSH1 0x0 PUSH2 0xD12 PUSH2 0xD23 JUMP JUMPDEST SWAP1 POP PUSH2 0xD1E DUP3 DUP3 PUSH2 0xED6 JUMP JUMPDEST SWAP2 SWAP1 POP JUMP JUMPDEST PUSH1 0x0 PUSH1 0x40 MLOAD SWAP1 POP SWAP1 JUMP JUMPDEST PUSH1 0x0 PUSH8 0xFFFFFFFFFFFFFFFF DUP3 GT ISZERO PUSH2 0xD48 JUMPI PUSH2 0xD47 PUSH2 0xFDD JUMP JUMPDEST JUMPDEST PUSH2 0xD51 DUP3 PUSH2 0x1020 JUMP JUMPDEST SWAP1 POP PUSH1 0x20 DUP2 ADD SWAP1 POP SWAP2 SWAP1 POP JUMP JUMPDEST PUSH1 0x0 DUP2 SWAP1 POP PUSH1 0x20 DUP3 ADD SWAP1 POP SWAP2 SWAP1 POP JUMP JUMPDEST PUSH1 0x0 DUP2 MLOAD SWAP1 POP SWAP2 SWAP1 POP JUMP JUMPDEST PUSH1 0x0 DUP2 MLOAD SWAP1 POP SWAP2 SWAP1 POP JUMP JUMPDEST PUSH1 0x0 PUSH1 0x20 DUP3 ADD SWAP1 POP SWAP2 SWAP1 POP JUMP JUMPDEST PUSH1 0x0 DUP3 DUP3 MSTORE PUSH1 0x20 DUP3 ADD SWAP1 POP SWAP3 SWAP2 POP POP JUMP JUMPDEST PUSH1 0x0 DUP3 DUP3 MSTORE PUSH1 0x20 DUP3 ADD SWAP1 POP SWAP3 SWAP2 POP POP JUMP JUMPDEST PUSH1 0x0 DUP3 DUP3 MSTORE PUSH1 0x20 DUP3 ADD SWAP1 POP SWAP3 SWAP2 POP POP JUMP JUMPDEST PUSH1 0x0 PUSH2 0xDCF DUP3 PUSH2 0xE58 JUMP JUMPDEST SWAP2 POP PUSH2 0xDDA DUP4 PUSH2 0xE58 JUMP JUMPDEST SWAP3 POP DUP3 PUSH32 0xFFFFFFFFFFFFFFFFFFFFFFFFFFFFFFFFFFFFFFFFFFFFFFFFFFFFFFFFFFFFFFFF SUB DUP3 GT ISZERO PUSH2 0xE0F JUMPI PUSH2 0xE0E PUSH2 0xF50 JUMP JUMPDEST JUMPDEST DUP3 DUP3 ADD SWAP1 POP SWAP3 SWAP2 POP POP JUMP JUMPDEST PUSH1 0x0 PUSH2 0xE25 DUP3 PUSH2 0xE38 JUMP JUMPDEST SWAP1 POP SWAP2 SWAP1 POP JUMP JUMPDEST PUSH1 0x0 DUP2 ISZERO ISZERO SWAP1 POP SWAP2 SWAP1 POP JUMP JUMPDEST PUSH1 0x0 PUSH20 0xFFFFFFFFFFFFFFFFFFFFFFFFFFFFFFFFFFFFFFFF DUP3 AND SWAP1 POP SWAP2 SWAP1 POP JUMP JUMPDEST PUSH1 0x0 DUP2 SWAP1 POP SWAP2 SWAP1 POP JUMP JUMPDEST DUP3 DUP2 DUP4 CALLDATACOPY PUSH1 0x0 DUP4 DUP4 ADD MSTORE POP POP POP JUMP JUMPDEST PUSH1 0x0 JUMPDEST DUP4 DUP2 LT ISZERO PUSH2 0xE8F JUMPI DUP1 DUP3 ADD MLOAD DUP2 DUP5 ADD MSTORE PUSH1 0x20 DUP2 ADD SWAP1 POP PUSH2 0xE74 JUMP JUMPDEST DUP4 DUP2 GT ISZERO PUSH2 0xE9E JUMPI PUSH1 0x0 DUP5 DUP5 ADD MSTORE JUMPDEST POP POP POP POP JUMP JUMPDEST PUSH1 0x0 PUSH1 0x2 DUP3 DIV SWAP1 POP PUSH1 0x1 DUP3 AND DUP1 PUSH2 0xEBC JUMPI PUSH1 0x7F DUP3 AND SWAP2 POP JUMPDEST PUSH1 0x20 DUP3 LT DUP2 EQ ISZERO PUSH2 0xED0 JUMPI PUSH2 0xECF PUSH2 0xF7F JUMP JUMPDEST JUMPDEST POP SWAP2 SWAP1 POP JUMP JUMPDEST PUSH2 0xEDF DUP3 PUSH2 0x1020 JUMP JUMPDEST DUP2 ADD DUP2 DUP2 LT PUSH8 0xFFFFFFFFFFFFFFFF DUP3 GT OR ISZERO PUSH2 0xEFE JUMPI PUSH2 0xEFD PUSH2 0xFDD JUMP JUMPDEST JUMPDEST DUP1 PUSH1 0x40 MSTORE POP POP POP JUMP JUMPDEST PUSH1 0x0 PUSH2 0xF12 DUP3 PUSH2 0xE58 JUMP JUMPDEST SWAP2 POP PUSH32 0xFFFFFFFFFFFFFFFFFFFFFFFFFFFFFFFFFFFFFFFFFFFFFFFFFFFFFFFFFFFFFFFF DUP3 EQ ISZERO PUSH2 0xF45 JUMPI PUSH2 0xF44 PUSH2 0xF50 JUMP JUMPDEST JUMPDEST PUSH1 0x1 DUP3 ADD SWAP1 POP SWAP2 SWAP1 POP JUMP JUMPDEST PUSH32 0x4E487B7100000000000000000000000000000000000000000000000000000000 PUSH1 0x0 MSTORE PUSH1 0x11 PUSH1 0x4 MSTORE PUSH1 0x24 PUSH1 0x0 REVERT JUMPDEST PUSH32 0x4E487B7100000000000000000000000000000000000000000000000000000000 PUSH1 0x0 MSTORE PUSH1 0x22 PUSH1 0x4 MSTORE PUSH1 0x24 PUSH1 0x0 REVERT JUMPDEST PUSH32 0x4E487B7100000000000000000000000000000000000000000000000000000000 PUSH1 0x0 MSTORE PUSH1 0x32 PUSH1 0x4 MSTORE PUSH1 0x24 PUSH1 0x0 REVERT JUMPDEST PUSH32 0x4E487B7100000000000000000000000000000000000000000000000000000000 PUSH1 0x0 MSTORE PUSH1 0x41 PUSH1 0x4 MSTORE PUSH1 0x24 PUSH1 0x0 REVERT JUMPDEST PUSH1 0x0 DUP1 REVERT JUMPDEST PUSH1 0x0 DUP1 REVERT JUMPDEST PUSH1 0x0 DUP1 REVERT JUMPDEST PUSH1 0x0 DUP1 REVERT JUMPDEST PUSH1 0x0 PUSH1 0x1F NOT PUSH1 0x1F DUP4 ADD AND SWAP1 POP SWAP2 SWAP1 POP JUMP JUMPDEST PUSH32 0x4E6F74207265676973746572656420746F20766F746500000000000000000000 PUSH1 0x0 DUP3 ADD MSTORE POP JUMP JUMPDEST PUSH32 0x416C726561647920766F74656400000000000000000000000000000000000000 PUSH1 0x0 DUP3 ADD MSTORE POP JUMP JUMPDEST PUSH2 0x108C DUP2 PUSH2 0xE1A JUMP JUMPDEST DUP2 EQ PUSH2 0x1097 JUMPI PUSH1 0x0 DUP1 REVERT JUMPDEST POP JUMP JUMPDEST PUSH2 0x10A3 DUP2 PUSH2 0xE58 JUMP JUMPDEST DUP2 EQ PUSH2 0x10AE JUMPI PUSH1 0x0 DUP1 REVERT JUMPDEST POP JUMP INVALID LOG2 PUSH5 0x6970667358 0x22 SLT KECCAK256 0xF9 SWAP12 0x23 0xD SWAP9 DIFFICULTY 0xF8 0xB3 PUSH25 0xC4BD84FF868BFE0A157A391F1AB64B8DB098CD301B37496473 PUSH16 0x6C634300080600330000000000000000 "
		},
		"gasEstimates": {
			"creation": {
				"codeDepositCost": "865400",
				"executionCost": "infinite",
				"totalCost": "infinite"
			},
			"external": {
				"candidates(uint256)": "infinite",
				"castVote(uint256)": "infinite",
				"changeText(string)": "infinite",
				"getCandidates()": "infinite",
				"getWinner()": "infinite",
				"registerVoter()": "52669",
				"speak()": "infinite",
				"voters(address)": "infinite"
			}
		},
		"methodIdentifiers": {
			"candidates(uint256)": "3477ee2e",
			"castVote(uint256)": "3eb76b9c",
			"changeText(string)": "039b925a",
			"getCandidates()": "06a49fce",
			"getWinner()": "8e7ea5b2",
			"registerVoter()": "ecb617d9",
			"speak()": "50d85315",
			"voters(address)": "a3ec138d"
		}
	},
	"abi": [
		{
			"inputs": [],
			"stateMutability": "nonpayable",
			"type": "constructor"
		},
		{
			"anonymous": false,
			"inputs": [
				{
					"indexed": false,
					"internalType": "address",
					"name": "voter",
					"type": "address"
				}
			],
			"name": "NewVoter",
			"type": "event"
		},
		{
			"anonymous": false,
			"inputs": [
				{
					"indexed": false,
					"internalType": "address",
					"name": "voter",
					"type": "address"
				},
				{
					"indexed": false,
					"internalType": "uint256",
					"name": "candidateIndex",
					"type": "uint256"
				}
			],
			"name": "VoteCast",
			"type": "event"
		},
		{
			"anonymous": false,
			"inputs": [],
			"name": "VotingComplete",
			"type": "event"
		},
		{
			"inputs": [
				{
					"internalType": "uint256",
					"name": "",
					"type": "uint256"
				}
			],
			"name": "candidates",
			"outputs": [
				{
					"internalType": "string",
					"name": "name",
					"type": "string"
				},
				{
					"internalType": "uint256",
					"name": "voteCount",
					"type": "uint256"
				}
			],
			"stateMutability": "view",
			"type": "function"
		},
		{
			"inputs": [
				{
					"internalType": "uint256",
					"name": "candidateIndex",
					"type": "uint256"
				}
			],
			"name": "castVote",
			"outputs": [],
			"stateMutability": "nonpayable",
			"type": "function"
		},
		{
			"inputs": [
				{
					"internalType": "string",
					"name": "newText",
					"type": "string"
				}
			],
			"name": "changeText",
			"outputs": [],
			"stateMutability": "nonpayable",
			"type": "function"
		},
		{
			"inputs": [],
			"name": "getCandidates",
			"outputs": [
				{
					"components": [
						{
							"internalType": "string",
							"name": "name",
							"type": "string"
						},
						{
							"internalType": "uint256",
							"name": "voteCount",
							"type": "uint256"
						}
					],
					"internalType": "struct Contract.Candidate[]",
					"name": "",
					"type": "tuple[]"
				}
			],
			"stateMutability": "view",
			"type": "function"
		},
		{
			"inputs": [],
			"name": "getWinner",
			"outputs": [
				{
					"internalType": "string",
					"name": "",
					"type": "string"
				}
			],
			"stateMutability": "view",
			"type": "function"
		},
		{
			"inputs": [],
			"name": "registerVoter",
			"outputs": [
				{
					"internalType": "uint256",
					"name": "",
					"type": "uint256"
				}
			],
			"stateMutability": "nonpayable",
			"type": "function"
		},
		{
			"inputs": [],
			"name": "speak",
			"outputs": [
				{
					"internalType": "string",
					"name": "",
					"type": "string"
				}
			],
			"stateMutability": "view",
			"type": "function"
		},
		{
			"inputs": [
				{
					"internalType": "address",
					"name": "",
					"type": "address"
				}
			],
			"name": "voters",
			"outputs": [
				{
					"internalType": "bool",
					"name": "isRegistered",
					"type": "bool"
				},
				{
					"internalType": "bool",
					"name": "hasVoted",
					"type": "bool"
				}
			],
			"stateMutability": "view",
			"type": "function"
		}
	]
}